:02000000B32922
:1000060083120313FB01FA01F901F801A001730D34
:10001600F80D7408F8027508031C750FF9027608C6
:10002600031C760FFA027708031C770FFB02000108
:10003600031C0130A002F30D0730FC00730DF80D10
:10004600F90DFA0DFB0DA00D7408731C3C28F8027F
:100056007508031C750FF9027608031C760FFA0261
:100066007708031C770FFB020001031C0130A00276
:100076004D28F80775080318750FF9077608031851
:10008600760FFA0777080318770FFB0700010318A6
:100096000130A007F30DFC0B2128720DF80DF90DA8
:1000A600FA0DFB0DA00D7408731C6B28F802750879
:1000B600031C750FF9027608031C760FFA027708FF
:1000C600031C770FFB020001031C0130A0027C28F1
:1000D600F80775080318750FF90776080318760FE1
:1000E600FA0777080318770FFB070001031801309A
:1000F600A007F20D0730FC00720DF80DF90DFA0D90
:10010600FB0DA00D7408721C9A28F8027508031CD2
:10011600750FF9027608031C760FFA027708031C9E
:10012600770FFB020001031C0130A002AB28F80781
:1001360075080318750FF90776080318760FFA077E
:1001460077080318770FFB07000103180130A00793
:10015600F20DFC0B7F28710DF80DF90DFA0DFB0D54
:10016600A00D7408721CC928F8027508031C750FC7
:10017600F9027608031C760FFA027708031C770F3C
:10018600FB020001031C0130A002DA28F8077508FB
:100196000318750FF90776080318760FFA0777081C
:1001A6000318770FFB07000103180130A007F10DB4
:1001B6000730FC00710DF80DF90DFA0DFB0DA00DC1
:1001C6007408711CF828F8027508031C750FF902EB
:1001D6007608031C760FFA027708031C770FFB02DA
:1001E6000001031C0130A0020929F807750803184D
:1001F600750FF90776080318760FFA0777080318BC
:10020600770FFB07000103180130A007F10DFC0B67
:10021600DD28700DF80DF90DFA0DFB0DA00D740813
:10022600711C2729F8027508031C750FF902760858
:10023600031C760FFA027708031C770FFB020001F6
:10024600031C0130A0023829F80775080318750F3A
:10025600F90776080318760FFA0777080318770F59
:10026600FB07000103180130A007F00D0730FC0062
:10027600700DF80DF90DFA0DFB0DA00D7408701C2C
:100286005629F8027508031C750FF9027608031C37
:10029600760FFA027708031C770FFB020001031C96
:1002A6000130A0026729F80775080318750FF907CA
:1002B60076080318760FFA0777080318770FFB07F7
:1002C600000103180130A007F00DFC0B3B29701844
:1002D6007A297408F80775080318750FF907760860
:1002E6000318760FFA0777080318770FFB0708003D
:1002F600C030831603138700203098009030831295
:1003060098000630F0002508F4002608F5000030B5
:10031600F51BFF30F600F700700803199929F40D54
:10032600F50DF60DF70D7410FF3E90290030F00024
:100336001230F1007A30F2000030F300032070032F
:0603460083169900080077
:10034C00DF30831203130C05F000031DAE29A62920
:0A035C00DF308C051A08F0000800DD
:10036600803083120313A5002530A6007B210630BA
:10037600FB001330FC00AD30FD00FD0BC029FC0B6B
:10038600C029FB0BC02900000000860183128601EC
:100396000B30FB002630FC005D30FD00FD0BD12943
:1003A600FC0BD129FB0BD12900000000FF30860091
:1003B6000B30FB002630FC005D30FD00FD0BE12913
:1003C600FC0BE129FB0BE1290000000086010B3044
:1003D600FB002630FC005D30FD00FD0BF029FC0B18
:1003E600F029FB0BF02900000000A6217008613AF5
:1003F600031D332AFF308600A101A2012208003C1A
:10040600031D072A2108FF3C031C182A2108950012
:100416001A30FC00F830FD00FD0B0F2AFC0B0F2AEA
:100426000000A10A0319A20A012AFF30A100A201B5
:1004360000302202031D212A00302102031C332A28
:10044600210895001A30FC00F830FD00FD0B292A22
:10045600FC0B292A00000130A102031CA2031B2A5F
:10046600A6217008623A031D462A86011530FB0054
:100476004B30FC00BE30FD00FD0B3F2AFC0B3F2A33
:0A048600FB0B3F2A0000F829472A6B
:02400E000A2F77
:00000001FF
