:02000000C9290C
:1000060083120313FB01FA01F901F801A001730D34
:10001600F80D7408F8027508031C750FF9027608C6
:10002600031C760FFA027708031C770FFB02000108
:10003600031C0130A002F30D0730FC00730DF80D10
:10004600F90DFA0DFB0DA00D7408731C3C28F8027F
:100056007508031C750FF9027608031C760FFA0261
:100066007708031C770FFB020001031C0130A00276
:100076004D28F80775080318750FF9077608031851
:10008600760FFA0777080318770FFB0700010318A6
:100096000130A007F30DFC0B2128720DF80DF90DA8
:1000A600FA0DFB0DA00D7408731C6B28F802750879
:1000B600031C750FF9027608031C760FFA027708FF
:1000C600031C770FFB020001031C0130A0027C28F1
:1000D600F80775080318750FF90776080318760FE1
:1000E600FA0777080318770FFB070001031801309A
:1000F600A007F20D0730FC00720DF80DF90DFA0D90
:10010600FB0DA00D7408721C9A28F8027508031CD2
:10011600750FF9027608031C760FFA027708031C9E
:10012600770FFB020001031C0130A002AB28F80781
:1001360075080318750FF90776080318760FFA077E
:1001460077080318770FFB07000103180130A00793
:10015600F20DFC0B7F28710DF80DF90DFA0DFB0D54
:10016600A00D7408721CC928F8027508031C750FC7
:10017600F9027608031C760FFA027708031C770F3C
:10018600FB020001031C0130A002DA28F8077508FB
:100196000318750FF90776080318760FFA0777081C
:1001A6000318770FFB07000103180130A007F10DB4
:1001B6000730FC00710DF80DF90DFA0DFB0DA00DC1
:1001C6007408711CF828F8027508031C750FF902EB
:1001D6007608031C760FFA027708031C770FFB02DA
:1001E6000001031C0130A0020929F807750803184D
:1001F600750FF90776080318760FFA0777080318BC
:10020600770FFB07000103180130A007F10DFC0B67
:10021600DD28700DF80DF90DFA0DFB0DA00D740813
:10022600711C2729F8027508031C750FF902760858
:10023600031C760FFA027708031C770FFB020001F6
:10024600031C0130A0023829F80775080318750F3A
:10025600F90776080318760FFA0777080318770F59
:10026600FB07000103180130A007F00D0730FC0062
:10027600700DF80DF90DFA0DFB0DA00D7408701C2C
:100286005629F8027508031C750FF9027608031C37
:10029600760FFA027708031C770FFB020001031C96
:1002A6000130A0026729F80775080318750FF907CA
:1002B60076080318760FFA0777080318770FFB07F7
:1002C600000103180130A007F00DFC0B3B29701844
:1002D6007A297408F80775080318750FF907760860
:1002E6000318760FFA0777080318770FFB0708003D
:1002F600CE30831603139F00413083129F000130D6
:06030600831685000800CB
:10030C00C03083160313870020309800903083127E
:10031C0098000630F0002308F4002408F5000030A3
:10032C00F51BFF30F600F70070080319A429F40D33
:10033C00F50DF60DF70D7410FF3E9B290030F00003
:10034C001230F1007A30F2000030F3000320700319
:06035C0083169900080061
:10036200831203131F151F1DB729B4291E08F1009C
:0E037200F00183161E08F0040030F1040800AC
:10038000831603139818C529C029831223089900DE
:02039000080063
:100392007B2180308312A3002530A4008621063001
:1003A200FB001330FC00AD30FD00FD0BD629FC0B29
:1003B200D629FB0BD6290000000086018312860194
:1003C2000B30FB002630FC005D30FD00FD0BE72901
:1003D200FC0BE729FB0BE72900000000FF30860039
:1003E2000B30FB002630FC005D30FD00FD0BF729D1
:1003F200FC0BF729FB0BF7290000000086010B30EC
:10040200FB002630FC005D30FD00FD0B062AFC0BD4
:10041200062AFB0B062A00000000B1217108013CEC
:10042200031D152A70085E3C031C492A61308312A1
:10043200A300C0210B30FB002630FC005D30FD0024
:10044200FD0B212AFC0B212AFB0B212A00000000B4
:10045200FF3086003330FB00BB30FC00DF30FD0094
:10046200FD0B312AFC0B312AFB0B312A0000000064
:1004720086013330FB00BB30FC00DF30FD00FD0B9A
:10048200402AFC0B402AFB0B402A00000000812A74
:10049200B1217108013C031D502A70085E3C03180B
:1004A200812A62308312A300C0210B30FB00263068
:1004B200FC005D30FD00FD0B5C2AFC0B5C2AFB0B93
:1004C2005C2A00000000FF3086001530FB004B3034
:1004D200FC00BE30FD00FD0B6C2AFC0B6C2AFB0BF2
:1004E2006C2A000086011530FB004B30FC00BE3048
:1004F200FD00FD0B7A2AFC0B7A2AFB0B7A2A0000FC
:040502000E2A822A11
:02400E000A2F77
:00000001FF
